{
    "abi": [
        {
            "inputs": [
                {
                    "internalType": "address",
                    "name": "_router",
                    "type": "address"
                },
                {
                    "internalType": "uint256",
                    "name": "buyFee",
                    "type": "uint256"
                },
                {
                    "internalType": "uint256",
                    "name": "sellFee",
                    "type": "uint256"
                }
            ],
            "stateMutability": "nonpayable",
            "type": "constructor"
        },
        {
            "anonymous": false,
            "inputs": [
                {
                    "indexed": true,
                    "internalType": "address",
                    "name": "previousOwner",
                    "type": "address"
                },
                {
                    "indexed": true,
                    "internalType": "address",
                    "name": "newOwner",
                    "type": "address"
                }
            ],
            "name": "OwnershipTransferred",
            "type": "event"
        },
        {
            "stateMutability": "payable",
            "type": "fallback"
        },
        {
            "inputs": [
                {
                    "internalType": "address",
                    "name": "token",
                    "type": "address"
                },
                {
                    "internalType": "uint256",
                    "name": "minTokens",
                    "type": "uint256"
                }
            ],
            "name": "buy",
            "outputs": [],
            "stateMutability": "payable",
            "type": "function"
        },
        {
            "inputs": [],
            "name": "fees",
            "outputs": [
                {
                    "internalType": "uint256",
                    "name": "buyFee",
                    "type": "uint256"
                },
                {
                    "internalType": "uint256",
                    "name": "sellFee",
                    "type": "uint256"
                }
            ],
            "stateMutability": "view",
            "type": "function"
        },
        {
            "inputs": [],
            "name": "owner",
            "outputs": [
                {
                    "internalType": "address",
                    "name": "",
                    "type": "address"
                }
            ],
            "stateMutability": "view",
            "type": "function"
        },
        {
            "inputs": [],
            "name": "renounceOwnership",
            "outputs": [],
            "stateMutability": "nonpayable",
            "type": "function"
        },
        {
            "inputs": [],
            "name": "router",
            "outputs": [
                {
                    "internalType": "contract IRouter",
                    "name": "",
                    "type": "address"
                }
            ],
            "stateMutability": "view",
            "type": "function"
        },
        {
            "inputs": [
                {
                    "internalType": "address",
                    "name": "token",
                    "type": "address"
                },
                {
                    "internalType": "uint256",
                    "name": "tokenAmount",
                    "type": "uint256"
                },
                {
                    "internalType": "uint256",
                    "name": "minETH",
                    "type": "uint256"
                }
            ],
            "name": "sell",
            "outputs": [],
            "stateMutability": "nonpayable",
            "type": "function"
        },
        {
            "inputs": [
                {
                    "internalType": "uint256",
                    "name": "buyFee",
                    "type": "uint256"
                },
                {
                    "internalType": "uint256",
                    "name": "sellFee",
                    "type": "uint256"
                }
            ],
            "name": "setFees",
            "outputs": [],
            "stateMutability": "nonpayable",
            "type": "function"
        },
        {
            "stateMutability": "payable",
            "type": "receive"
        }
    ],
    "bytecode": {
        "object": "0x608060405234801561001057600080fd5b50604051610c14380380610c1483398101604081905261002f9161009c565b600080546001600160a01b031916339081178255604051909182917f8be0079c531659141344cd1fd0a4f28419497f9722a3daafe3b4186f6b6457e0908290a350600180546001600160a01b0319166001600160a01b0394909416939093179092556002556003556100df565b6000806000606084860312156100b157600080fd5b83516001600160a01b03811681146100c857600080fd5b602085015160409095015190969495509392505050565b610b26806100ee6000396000f3fe60806040526004361061006e5760003560e01c80638da5cb5b1161004b5780638da5cb5b146100cc5780639af1d35a14610103578063cce7ec131461012b578063f887ea401461013e57005b80630b78f9c0146100775780636a27246214610097578063715018a6146100b757005b3661007557005b005b34801561008357600080fd5b50610075610092366004610808565b61015e565b3480156100a357600080fd5b506100756100b2366004610842565b6101c8565b3480156100c357600080fd5b50610075610584565b3480156100d857600080fd5b506000546001600160a01b03165b6040516001600160a01b0390911681526020015b60405180910390f35b34801561010f57600080fd5b50600254600354604080519283526020830191909152016100fa565b610075610139366004610877565b610628565b34801561014a57600080fd5b506001546100e6906001600160a01b031681565b6000546001600160a01b031633146101bd5760405162461bcd60e51b815260206004820181905260248201527f4f776e61626c653a2063616c6c6572206973206e6f7420746865206f776e657260448201526064015b60405180910390fd5b600291909155600355565b6040516323b872dd60e01b8152336004820152306024820152604481018390526001600160a01b038416906323b872dd906064016020604051808303816000875af115801561021b573d6000803e3d6000fd5b505050506040513d601f19601f8201168201806040525081019061023f91906108a3565b5060015460405163095ea7b360e01b81526001600160a01b039182166004820152602481018490529084169063095ea7b3906044016020604051808303816000875af1158015610293573d6000803e3d6000fd5b505050506040513d601f19601f820116820180604052508101906102b791906108a3565b506040805160028082526060820183524792600092919060208301908036833701905050905084816000815181106102f1576102f16108e2565b6001600160a01b03928316602091820292909201810191909152600154604080516315ab88c960e31b81529051919093169263ad5c46489260048083019391928290030181865afa15801561034a573d6000803e3d6000fd5b505050506040513d601f19601f8201168201806040525081019061036e91906108f8565b81600181518110610381576103816108e2565b6001600160a01b03928316602091820292909201015260015460405163791ac94760e01b815291169063791ac947906103c69087908790869030904290600401610959565b600060405180830381600087803b1580156103e057600080fd5b505af11580156103f4573d6000803e3d6000fd5b505050506000824761040691906109ab565b9050600060646003548361041a91906109c4565b61042491906109db565b9050600061043a6000546001600160a01b031690565b6001600160a01b03168260405160006040518083038185875af1925050503d8060008114610484576040519150601f19603f3d011682016040523d82523d6000602084013e610489565b606091505b50509050806104da5760405162461bcd60e51b815260206004820152601860248201527f5472616e7366657220746f206f776e6572206661696c6564000000000000000060448201526064016101b4565b6000336104e784866109ab565b604051600081818185875af1925050503d8060008114610523576040519150601f19603f3d011682016040523d82523d6000602084013e610528565b606091505b50509050806105795760405162461bcd60e51b815260206004820152601960248201527f5472616e7366657220746f2073656e646572206661696c65640000000000000060448201526064016101b4565b505050505050505050565b6000546001600160a01b031633146105de5760405162461bcd60e51b815260206004820181905260248201527f4f776e61626c653a2063616c6c6572206973206e6f7420746865206f776e657260448201526064016101b4565b600080546040516001600160a01b03909116907f8be0079c531659141344cd1fd0a4f28419497f9722a3daafe3b4186f6b6457e0908390a3600080546001600160a01b0319169055565b600060646002543461063a91906109c4565b61064491906109db565b9050600061065282346109ab565b90506106666000546001600160a01b031690565b6001600160a01b03166108fc839081150290604051600060405180830381858888f1935050505015801561069e573d6000803e3d6000fd5b506040805160028082526060820183526000926020830190803683375050600154604080516315ab88c960e31b815290519394506001600160a01b039091169263ad5c4648925060048083019260209291908290030181865afa158015610709573d6000803e3d6000fd5b505050506040513d601f19601f8201168201806040525081019061072d91906108f8565b81600081518110610740576107406108e2565b60200260200101906001600160a01b031690816001600160a01b0316815250508481600181518110610774576107746108e2565b6001600160a01b039283166020918202929092010152600154604051637ff36ab560e01b8152911690637ff36ab59084906107b99088908690339042906004016109fd565b60006040518083038185885af11580156107d7573d6000803e3d6000fd5b50505050506040513d6000823e601f3d908101601f191682016040526108009190810190610a32565b505050505050565b6000806040838503121561081b57600080fd5b50508035926020909101359150565b6001600160a01b038116811461083f57600080fd5b50565b60008060006060848603121561085757600080fd5b83356108628161082a565b95602085013595506040909401359392505050565b6000806040838503121561088a57600080fd5b82356108958161082a565b946020939093013593505050565b6000602082840312156108b557600080fd5b815180151581146108c557600080fd5b9392505050565b634e487b7160e01b600052604160045260246000fd5b634e487b7160e01b600052603260045260246000fd5b60006020828403121561090a57600080fd5b81516108c58161082a565b600081518084526020808501945080840160005b8381101561094e5781516001600160a01b031687529582019590820190600101610929565b509495945050505050565b85815284602082015260a06040820152600061097860a0830186610915565b6001600160a01b0394909416606083015250608001529392505050565b634e487b7160e01b600052601160045260246000fd5b818103818111156109be576109be610995565b92915050565b80820281158282048414176109be576109be610995565b6000826109f857634e487b7160e01b600052601260045260246000fd5b500490565b848152608060208201526000610a166080830186610915565b6001600160a01b03949094166040830152506060015292915050565b60006020808385031215610a4557600080fd5b825167ffffffffffffffff80821115610a5d57600080fd5b818501915085601f830112610a7157600080fd5b815181811115610a8357610a836108cc565b8060051b604051601f19603f83011681018181108582111715610aa857610aa86108cc565b604052918252848201925083810185019188831115610ac657600080fd5b938501935b82851015610ae457845184529385019392850192610acb565b9897505050505050505056fea264697066735822122039b0f21368a2d0291f4792c13aa39f79b129962c9d1ff73b17668053da1270ce64736f6c63430008140033",
        "linkReferences": {}
    },
    "methodIdentifiers": {
        "buy(address,uint256)": "cce7ec13",
        "fees()": "9af1d35a",
        "owner()": "8da5cb5b",
        "renounceOwnership()": "715018a6",
        "router()": "f887ea40",
        "sell(address,uint256,uint256)": "6a272462",
        "setFees(uint256,uint256)": "0b78f9c0"
    },
    "id": 18
}